:020000040800F2
:100000000004002047010008111100081311000826
:10001000171100081B1100081F1100080000000044
:100020000000000000000000000000002311000894
:100030002511000800000000271100082911000800
:100040006701000867010008670100082B1100081C
:1000500067010008670100086701000867010008E0
:1000600067010008670100086701000867010008D0
:1000700067010008670100086701000867010008C0
:1000800067010008670100086701000867010008B0
:1000900067010008670100086701000867010008A0
:1000A0006701000867010008670100086701000890
:1000B0006701000867010008670100086701000880
:1000C0006701000867010008670100086701000870
:1000D0006701000867010008670100086701000860
:1000E0006701000867010008670100086701000850
:1000F0006701000867010008670100086701000840
:10010000670100086701000867010008670100082F
:10011000670100086701000867010008670100081F
:10012000670100086701000867010008670100080F
:10013000DFF80CD001F0C2FF004800475F0D000857
:10014000B0030020704708488047084981F30888B9
:1001500007480047FEE7FEE7FEE7FEE7FEE7FEE7AB
:10016000FEE7FEE7FEE7FEE745010008B0030020DA
:100170003101000802460E2A70D2DFE802F086073D
:100180001019222B353F49535D67727CF748405C5C
:1001900000F0080008B9002070470120FCE7F34890
:1001A000405C00F0040008B90020F5E70120F3E707
:1001B000EE48405C00F0020008B90020ECE70120A6
:1001C000EAE7EA48405C00F0010008B90020E3E7F4
:1001D0000120E1E7E54B481C185C00F0800008B9FD
:1001E0000020D9E70120D7E7E04B481C185C00F05D
:1001F000400008B90020CFE70120CDE7DB4B481CC9
:10020000185C00F0200008B90020C5E70120C3E712
:10021000D64B481C185C00F0100008B90020BBE762
:100220000120B9E7D14B481C185C00F0080008B960
:100230000020B1E70120AFE7CC4B481C185C00F070
:10024000040008B90020A7E70120A5E7C74B481C18
:10025000185C00F0020010B900209DE715E00120B5
:100260009AE7C24B481C185C00F0010008B9002056
:1002700092E7012090E7BD4B881C185C00F08000DD
:1002800008B9002088E7012086E7002084E72DE9EF
:10029000FF4F83B00C461F466421039890FBF1F09A
:1002A000C0B20190039890FBF1F201FB1200C5B2BD
:1002B0000198132806D00198142803D0002007B015
:1002C000BDE8F08F0198142806D105F1630000EB1A
:1002D00040001FFA80F904E0681E00EB40001FFA9E
:1002E00080F9A24909F10200085C00F0600A4FEAB7
:1002F0006A1A09F10200085C00F01F0BBAF1010F45
:1003000004D1ABF1010000F0FF0803E00BF11E0087
:1003100000F0FF080A2C07DA601E9549095C059871
:100320000844401E86B208E0A4F10A00914931F861
:10033000101005980844401E86B2022C08DDE9170B
:1003400005EB91718910A5EB810109B9701C86B28A
:1003500046453EDBA6EB080086B201240120029050
:100360000020009049460298FFF704FF10B94FF0B3
:100370001D0A01E04FF01E0A7C4911F80900C1175F
:1003800000EB11714FEA211B1DE0A6EB0A0086B2BB
:100390000298401CC0B202905C4508D10098C0434E
:1003A000C0B20090009820B9601CC4B201E0601C8B
:1003B000C4B249460298FFF7DDFE10B94FF01D0A9E
:1003C00001E04FF01E0A5645DFDA701CC0B20590FE
:1003D0004FE0A8EB060000F0FF081DB963251320CD
:1003E000019001E0681EC5B2A9F103001FFA80F96F
:1003F0000C245E4911F80900C11700EB11714FEA96
:10040000211BBBF1000F02D10C20029001E00D2056
:1004100002900020009049460298FFF7ABFE10B909
:100420004FF01D0A01E04FF01E0A1BE0A8EB0A0086
:1004300000F0FF080298401EC0B20290009808B970
:10044000601EC4B25C4503D10098C043C0B20090A6
:1004500049460298FFF78EFE10B94FF01D0A01E0E1
:100460004FF01E0AD045E1DCAAEB0800401CC0B2E8
:100470000590019807F8010B07F8015B07F8014B9D
:100480000598387001201AE710B50A46B0F5F86FE4
:1004900009DBA0F5F86398B23C2390FBF3F403FB6F
:1004A0001403D9B20AE0C0F5F86398B23C2390FB7C
:1004B000F3F403FB1403C3F13C03D9B2117010BD74
:1004C00010B5002305E011F8014B00F8014B5C1C4E
:1004D000A3B29342F7DB10BD2DE9FC4105460E4661
:1004E00017461C460F2224A12046FFF7E9FF01AB67
:1004F0003A4631462846FFF7CAFE08B9BDE8FC81F6
:100500009DF805209DF8041001EBC10303EB0111D8
:1005100002EB81006946FFF7B7FF9DF800000A2152
:1005200090FBF1F201FB1200174951F820800222E2
:1005300041462046FFF7C4FF9DF800000C2190FBC8
:10054000F1F201FB1200114951F8208002224146CC
:10055000A01CFFF7B5FF9DF8060001281AD1022262
:100560000BA1A01DFFF7ACFF1EE000003023000828
:100570003626000840260008BCD7D7D3C4EAD5FDEC
:10058000D4C2B3F5D2BB0000600000208800002078
:10059000D5FD00009DF80600401E8C4A52F8201040
:1005A0000222A01DFFF78CFF9DF807000A280EDD30
:1005B0009DF807000A2190FBF1F0854951F8208051
:1005C0000222414604F10A00FFF77AFF05E0022209
:1005D00080A104F10A00FFF773FF9DF80700401E99
:1005E0000A2190FBF1F201FB1200784951F82080BA
:1005F0000222414604F10C00FFF762FF00BF7DE7D5
:100600002DE9F04104460D46B4F5FA6F03DB40F6E0
:100610000200844202DD0020BDE8F0810DB10C2D06
:1006200001DD0020F8E7681E4006010E0F2A01DBFD
:10063000481CC1B208464FEAE17C01EB5C7C4FEA02
:10064000EC08A4F5FA6C0CEB4C0CC444DFF8888180
:1006500018F80C604FEAE17C01EB5C7C4FEAEC0C93
:10066000A1EBCC0C06FA0CFC0CF080075B48405C5C
:10067000187097B1012905D00B2903D0122901D098
:10068000152907D140F2FC70844203DA1878401C27
:10069000187002E01878401E18700120BCE72DE9A0
:1006A000F8430546884614461E466B462246414698
:1006B0002846FFF7A5FF10B90020BDE8F883A8F190
:1006C00001004006070E0F2C01DB781CC7B29DF815
:1006D0000000844208D1424850F8271005223046D5
:1006E000FFF7EEFE0120E8E70F223EA13046FFF7BC
:1006F000E7FE9DF8000084420BDA394850F82710D5
:100700000422B01CFFF7DCFE9DF80000001BC4B201
:100710004DE0781C172801DD0020CEE7304A781C18
:1007200052F820100422B01CFFF7CAFE0F2C0ADA80
:100730006B460F2241462846FFF762FF9DF80000F6
:10074000001BC4B233E0A8F101002A4911F800905F
:10075000B8F1020F17D1E91705EB91718910A5EBDC
:10076000810181B9642195FBF1F201FB125131B98C
:100770004FF4C87195FBF1F201FB125119B909F15F
:10078000010000F0FF0908F10100C0B280460D2809
:1007900001D14FF001086B46012241462846FFF780
:1007A0002FFFA9EB04009DF800100844C4B20A20F2
:1007B00094FBF0F03030B0720A2094FBF0F100FBB3
:1007C00011403030F072012077E70000B8000020BF
:1007D000E8000020B3F50000852500081E2600086B
:1007E00000000020C0EBC1A2B6ACBBB9D3D03F3FE4
:1007F000CCEC000052260008F0B58DB00446302243
:10080000704901A801F032FC6069451E642195FB26
:10081000F1F12846EA1705EB9272C1EBA2014FF401
:10082000C87295FBF2F28F186069C11700EB9171E5
:100830008910A0EB810191B96422616991FBF2F307
:1008400002FB131131B99200616991FBF2F302FBD3
:10085000131121B92169022901DD012600E00026DA
:1008600040F26D1005FB00712069401E01AA52F88C
:1008700020000844E16808440644072096FBF0F194
:1008800000FB1160A0610DB0F0BD10B50146086914
:10089000801E0861002805DC08690C300861486981
:1008A000401E48616423486990FBF3F04A69D317FE
:1008B00002EB9373C0EBA3004FF4C87492FBF4F304
:1008C000034440F26F14086960430C2490FBF4F079
:1008D0001844CB68034440F26D1402FB04303A4BD9
:1008E000C01A00EB40008B6803EBC000C0EB0010A7
:1008F0004B6803EB8000C0EB00100B6803EB80003B
:1009000010BD2DE9F04107460C463048B7FBF0F624
:10091000B7FBF0F100FB11784FF4616098FBF0F049
:10092000A0604FF4616098FBF0F100FB11803C2166
:1009300090FBF1F060604FF4616098FBF0F100FB18
:1009400011803C2190FBF1F201FB1200206040F28B
:10095000B27509E005F0030010B94FF4B77001E07B
:1009600040F26D10361A6D1C05F0030010B94FF4FB
:10097000B77001E040F26D10B042EBDD6561606977
:10098000C11700EB91718910A0EB810111B91D20F5
:100990000F494860012505E0681E0D4951F8200007
:1009A000361A6D1C681E0A4951F82000B042F3DD6A
:1009B0001C2048602561701CE0602046FFF71CFF8A
:1009C000BDE8F081602600088BFA0A008051010022
:1009D000F800002070B58AB00446F3492046FFF7BE
:1009E00090FFF148806828B9EF48406810B9EE4898
:1009F000006818B1ED48006800282FD0EA4B1A7B38
:100A0000197C9B8A98B206ABFFF741FC9DF81B004E
:100A100000909DF81A309DF819209DF81810E4A058
:100A200001F08AFBE04B1A7B197C9B8A98B206ABDB
:100A3000FFF752FD06A9E8A001F07EFBDA4B1A7B16
:100A4000197C9B8A98B206ABFFF729FE18B106A95C
:100A5000E3A001F071FB0020D4490860D24840694E
:100A6000C01E0C2190FBF1F201FB1200DE4951F88F
:100A70002050CD480068CC494968CB4A9268CA4B9F
:100A80009B69DA4E56F82330CDE90132CDE90310E7
:100A9000C548C0680090C44803692A464169D448E3
:100AA00001F04AFB0AB070BDCEA001F045FB0BE09F
:100AB000D0480068012807D101F000F80446FFF78C
:100AC00089FF0020CB490860F2E77CB50546002489
:100AD00000200090019027E000BF2021C64801F0CF
:100AE000E7F90028F9D0C44801F08FF92146641CC9
:100AF0004DF82100601E5DF82000302804D3601EF0
:100B00005DF8200039280FD9022C09D1601E5DF84C
:100B100020000D2804D1009801903020009003E0BF
:100B2000B6A001F009FB641E022CD5D30198303821
:100B30000099303901EB810100EB4104AC4205D949
:100B40002946BBA001F0F8FAFF207CBDE0B2FCE72B
:100B50002DE9F04704464FF0FF0AFF25FF26FF2747
:100B6000A846A946BEA001F0E7FACCA001F0E4FA3D
:100B700003E06320FFF7A9FF8246BAF1FF0FF8D028
:100B80005146D0A001F0D8FA0AF5FA606061FF255D
:100B9000D4A001F0D1FA03E00C20FFF796FF054640
:100BA000FF2DF9D02946D9A001F0C6FA2561FF260C
:100BB000DCA001F0C1FA03E01F20FFF786FF064624
:100BC000FF2EF9D03146E0A001F0B6FAE660FF272B
:100BD000E3A001F0B1FA03E01720FFF776FF074624
:100BE000FF2FF9D03946E7A001F0A6FAA7604FF031
:100BF000FF08EAA001F0A0FA03E03B20FFF765FF41
:100C00008046B8F1FF0FF8D04146EEA001F094FA0B
:100C1000C4F804804FF0FF09F0A001F08DFA03E062
:100C20003B20FFF752FF8146B9F1FF0FF8D049464C
:100C3000F4A001F081FAC4F80090BDE8F08710B587
:100C400000F078FF5848FFF783FF5748FFF7D4FDBF
:100C50005548FFF71AFE044600F039FF00F06AFF1E
:100C600010BD10B501214FF0C05000F0B0FE0120C2
:100C700000F0DFFC00F0E4FA012000F008FE00BF05
:100C8000412000F06DFD0028FAD04FF4807000F094
:100C90001AFE012000F01DFE00F055FF00F04AFF93
:100CA0000121084600F0EAFE00F044FF47F6FF701D
:100CB00000F01AFF00F03EFF10BD1FB54FF4E13009
:100CC00000900020ADF80400ADF80600ADF8080073
:100CD000ADF80C000C20ADF80A006946464800F05B
:100CE000BAFF0121444801F024F81FBD08B54FF4B4
:100CF0000070ADF8000018208DF8030003208DF877
:100D000002006946C54800F059FB4FF48060ADF819
:100D1000000004208DF803006946C04800F04EFB37
:100D200008BD08B54FF4C06000F01CFA03208DF830
:100D3000000001208DF8010000208DF80200012044
:100D40008DF80300684600F012FA08BD10B501F0F6
:100D500063F9012144F2040000F02CFE10BDFFF7FE
:100D6000F5FFFFF7DEFFFFF7C1FFFFF7A6FF042047
:100D700000F094FA4AF2A55188420FD0A8A001F0E1
:100D8000DBF9FFF76EFFAEA001F0D6F9FFF757FFD2
:100D90004AF2A551042000F07CFA73E17B2000F0B8
:100DA000DFFC00B158E15BE19401002078010020F4
:100DB0000A0D0A0D2020BDF1CCECC5A9C0FAA3BADA
:100DC00025302E326425302E32642C25302E3264AC
:100DD0002C25302E326400002020257300000000F6
:100DE000202025730A0D0000480100202C0100205E
:100DF000E027000828010020003801400A0D506C4F
:100E00006561736520656E7465722076616C6964D6
:100E1000206E756D626572206265747765656E20FF
:100E20003020616E642039202D2D3E3A20200000B4
:100E30000A0D506C6561736520656E74657220766D
:100E4000616C6964206E756D62657220626574778D
:100E500065656E203020616E64202564000000000E
:100E60000D0A3D3D3D3D3D3D3D3D3D3D3D3D3D3D15
:100E70003D3D3D3D3D3D3D3D3D3D3D54696D652024
:100E800053657474696E67733D3D3D3D3D3D3D3D29
:100E90003D3D3D3D3D3D3D3D3D3D00000D0A202099
:100EA000C7EBCAE4C8EBC4EAB7DD28506C656173D0
:100EB0006520536574205965617273293A20203288
:100EC000300000000A0D2020C4EAB7DDB1BBC9E83C
:100ED000D6C3CEAA3A2020323025302E32640A0DF5
:100EE000000000000D0A2020C7EBCAE4C8EBD4C202
:100EF000B7DD28506C6561736520536574204D6FB4
:100F00006E746873293A2020000000000A0D20202A
:100F1000D4C2B7DDB1BBC9E8D6C3CEAA3A202025DA
:100F2000640A0D000D0A2020C7EBCAE4C8EBC8D53F
:100F3000C6DA28506C65617365205365742044617E
:100F4000746573293A2020000A0D2020C8D5C6DA1E
:100F5000B1BBC9E8D6C3CEAA3A202025640A0D0049
:100F60000D0A2020C7EBCAE4C8EBCAB1D6D328507B
:100F70006C656173652053657420486F75727329C1
:100F80003A2020000A0D2020CAB1D6D3B1BBC9E84F
:100F9000D6C3CEAA3A202025640A0D000D0A2020CF
:100FA000C7EBCAE4C8EBB7D6D6D328506C656173DB
:100FB0006520536574204D696E75746573293A20F8
:100FC000200000000A0D2020B7D6D6D3B1BBC9E857
:100FD000D6C3CEAA3A202025640A0D000D0A20208F
:100FE000C7EBCAE4C8EBC3EBD6D328506C6561737A
:100FF0006520536574205365636F6E6473293A20CE
:10100000200000000A0D2020C3EBD6D3B1BBC9E8F5
:10101000D6C3CEAA3A202025640A0D00000801405C
:101020000D0A0A20525443206E6F74207965742093
:10103000636F6E666967757265642E2E2E2E0000D2
:101040000D0A2052544320636F6E6669677572659E
:10105000642E2E2E2E00000014A001F06DF806E084
:101060007A2000F07DFB10B118A001F065F81FA0F8
:1010700001F062F800F067FD0121084600F0FEFC77
:1010800000F058FD00F0D4FCFFF70EFD70B50446EB
:101090000D46E1B21D4800F0B4FE00BF1B480088B9
:1010A00000F080000028F9D0204670BD0D0A0A200B
:1010B000506F776572204F6E205265736574206F94
:1010C000636375727265642E2E2E2E000D0A0A203F
:1010D00045787465726E616C205265736574206F1B
:1010E000636375727265642E2E2E2E000D0A204EDB
:1010F0006F206E65656420746F20636F6E6669672C
:10110000757265205254432E2E2E2E000038014059
:10111000704700BFFEE700BFFEE700BFFEE700BF6D
:10112000FEE7704770477047704710B5012000F028
:101130002FFD88B1012000F03BFD01200749086028
:1011400000F0F8FC00F0BAFC0549884204D1002008
:1011500000F0BDFC00F0EEFC10BD000028010020F6
:101160008051010031490143314A1160704770B527
:10117000002100230F22C47804B32D4C246804F40A
:10118000E064C4F5E064210AC1F10403CA40447874
:1011900004FA03F18478144021430901254C0678B0
:1011A000A155047804F01F050124AC4005786D11A9
:1011B000AD0005F1E025C5F8004109E0047804F030
:1011C0001F050124AC401C4D0678761145F82640D9
:1011D00070BD1A4A0A400243154B1B1F1A60704724
:1011E00039B1134A121D12680243114B1B1D1A60BC
:1011F00006E00F4A121D126882430D4B1B1D1A6038
:101200007047042808D14FF0E021096941F004013A
:101210004FF0E022116107E04FF0E021096921F071
:1012200004014FF0E0221161704700000000FA0550
:101230000CED00E000E400E080E100E080FFFF1F33
:1012400010B5012000F0EAFB002000F0E7FB10BD24
:101250002349086070472249091F086070472049E8
:10126000843108607047014600201E4A10884FF6FE
:101270007F42104008431B4A1080704701460020FF
:10128000184A10884FF6807210400843154A1080A3
:101290007047154A0244A2F8001C704701461248E4
:1012A0000844B0F8000C70470D489C300068C0B28C
:1012B00070470C480830008840F0010009490831A7
:1012C000088070470648A0300068C0B270470548E3
:1012D0000830008840F00200024908310880704759
:1012E00004860D422C6C00400060004010B504469E
:1012F000C649601A8C422FD009DCC548204480B111
:10130000B0F5806F16D0B0F5006F4AD11BE0B0F594
:10131000806F2AD0B0F5006F30D0B0F5406F40D16B
:1013200035E00121042000F05FFB0021042000F0E3
:101330005BFB37E00121082000F056FB002108206C
:1013400000F052FB2EE00121102000F04DFB0021A7
:10135000102000F049FB25E00121202000F044FB93
:101360000021202000F040FB1CE00121402000F083
:101370003BFB0021402000F037FB13E001218020DF
:1013800000F032FB0021802000F02EFB0AE001215A
:10139000080200F029FB00214FF4807000F024FBCC
:1013A00000E000BF00BF10BD10B50121084600F0ED
:1013B0001BFB0021012000F017FB10BD2DE9F041BF
:1013C000024600250026002000230024002791F873
:1013D00003C00CF00F0591F803C00CF0100CBCF129
:1013E000000F03D091F802C04CEA050591F800C047
:1013F000BCF1000F31D0146800202BE04FF0010C3D
:101400000CFA00F3B1F800C00CEA03069E4220D1AA
:1014100083004FF00F0C0CFA03F7BC4305FA03FCF2
:101420004CEA040491F803C0BCF1280F06D14FF038
:10143000010C0CFA00FCC2F814C00AE091F803C0D9
:10144000BCF1480F05D14FF0010C0CFA00FCC2F8BA
:1014500010C0401C0828D1D31460B1F800C0BCF102
:10146000FF0F34DD546800202EE000F1080C4FF02F
:10147000010808FA0CF3B1F800C00CEA03069E421A
:1014800021D183004FF00F0C0CFA03F7BC4305FA8F
:1014900003FC4CEA040491F803C0BCF1280F05D109
:1014A00000F1080C08FA0CF8C2F8148091F803C097
:1014B000BCF1480F07D100F1080C4FF0010808FA01
:1014C0000CF8C2F81080401C0828CED35460BDE848
:1014D000F0814FF6FF710180022181700421C170FB
:1014E00070470246002093680B400BB1012000E0DA
:1014F000002070470146886880B27047024600208D
:10150000D3680B400BB1012000E00020704701467A
:10151000C86880B2704701617047416170470AB185
:10152000016100E041617047C16070474FF4803253
:101530000A438261816182618269826970470246E1
:101540000020344B18684FF68073184040EA0210B0
:101550000843304B186070472F49C8617047F0B599
:101560000A4600230024002100252A4E7168C0F39A
:10157000034583B200F44016B6F5401F08D121F0B0
:101580007061244E766826F07066224F7E6012E00D
:1015900000F48016B6F5801F06D1032606FA05F47E
:1015A000A14341F0706106E0460D360103FA06F6EC
:1015B000B14341F0706122B1460D360103FA06F6DF
:1015C0003143144E7160F0BD30B500228B071C0F03
:1015D0000F2303FA04F20F4B08338C1053F8243016
:1015E00093430C4C08348D1044F8253023468C105E
:1015F00053F824308C07240F00FA04F42343054CDD
:1016000008348D1044F8253030BD0000001401402E
:1016100000F8FEBF000001400000204210B501218B
:10162000080700F0EEF900214FF0805000F0E9F9D2
:1016300010BD274908627047254908617047014677
:101640000020244A106820F0E00008431060704732
:101650001F49A0310860704710B5024600201D4B9D
:10166000186820F00300104318601B4B1B6843F000
:101670000403194C2360012901D130BF00E020BFD1
:1016800010BD1448006840F0040012490860084684
:10169000006840F0020008600F48006840F0040055
:1016A0000D49086000BF00BF30BF704701460020F1
:1016B000084A52680A400AB1012000E00020704741
:1016C0000449096841EA8001024A1160704700003C
:1016D00000000E420070004010ED00E0DE4800689F
:1016E00040F00100DC49086008464068DB490840DA
:1016F000D949486008460068D9490840D649086079
:101700000846006820F4802008600846406820F4FD
:10171000FE004860002088607047CF49096821F4C6
:101720008031CD4A11601146096821F48021116091
:10173000B0F5803F03D0B0F5802F0ED106E0C6494A
:10174000096841F48031C44A116007E0C249096860
:1017500041F4A021C04A116000E000BF00BF704703
:1017600010B501460022002300204A11012A02D1AF
:10177000B94C236806E0022A02D1B74C236A01E083
:10178000B54C636A01F01F02012494401C400CB167
:10179000012000E0002010BD38B50020009000249A
:1017A000002500BF3120FFF7DBFF05460098401CF5
:1017B00000901DB90098B0F5A06FF3D13120FFF76C
:1017C000CFFF08B1012400E00024204638BD0146C7
:1017D0000020A14A106820F0F80040EAC100106023
:1017E0007047A04908607047024600209A4B58682D
:1017F00020F47C1042EA01031843974B586070476D
:1018000098490866704701460020934A506820F0C6
:1018100003000843506070478F48406800F00C0098
:101820007047014600208C4A506820F0F0000843C1
:101830005060704701460020874A506820F4E060FD
:1018400008435060704701460020834A506820F4E6
:10185000605040EAC1005060704729B17E4A527A18
:1018600002437D4B5A7204E07B4A527A82437A4BA0
:101870005A7270477B49D831086070470146002092
:10188000754A506820F4404008435060704700217A
:10189000714A20321170704A82F82010012802D05B
:1018A00004280AD104E001216B4A2032117005E0BE
:1018B0000521694A2032117000E000BF00BF704767
:1018C0006949086070476449096A0143624A1162C4
:1018D0007047654944390860704730B500210022DF
:1018E000002400235C4D6D6805F00C0121B1042932
:1018F00005D0082923D105E05C4D056022E05B4D51
:1019000005601FE0544D6D6805F47012022505EB6B
:101910009242514D6D6805F480341CB9544D5543C5
:1019200005600BE04C4D6D6805F400351DB1504D60
:101930005543056002E04D4D5543056002E04B4DB7
:10194000056000BF00BF444D6D6805F0F001090956
:10195000484D6B5C0568DD4045603F4D6D6805F4A2
:10196000E061090A434D6B5C4568DD4085603A4D96
:101970006D6805F46051C90A3E4D6B5C4568DD40F9
:10198000C560354D6D6805F44041890B3A4D6B5C7F
:10199000C568B5FBF3F5056130BD29B12E4A526922
:1019A00002432D4B5A6104E02B4A526982432A4B71
:1019B0005A61704729B1284A92690243264B9A61BD
:1019C00004E0254A92698243234B9A61704729B10A
:1019D000214AD2690243204BDA6104E01E4AD269EF
:1019E00082431D4BDA61704729B11B4AD26802431A
:1019F000194BDA6004E0184AD2688243164BDA6069
:101A0000704729B1144A12690243134B1A6104E06A
:101A1000114A12698243104B1A61704712494039CA
:101A2000086070470F49C86470470B49C871704718
:101A30000948406A40F08070074948627047014693
:101A40000020054A92680A400AB1012000E0002007
:101A50007047014988727047001002400000FFF88B
:101A6000FFFFF6FE000042428004424200127A006C
:101A700000093D007C0100208C01002029B1504A62
:101A8000128802434E4B1A8004E04D4A128882436A
:101A90004B4B1A8070474A48001D008840F01000E8
:101AA0004749091D088070474548001D00884FF6CA
:101AB000EF7108404249091D0880704700214048E5
:101AC0001C300188001F008841EA0040704700B5C3
:101AD0000246FFF7E0FF100C394918310880091D54
:101AE0000A80FFF7E1FF00BD00B50246FFF7D3FF14
:101AF000C2F30340324908310880091D0A80FFF70C
:101B0000D3FF00BD00B50246FFF7C5FF100C2C49FE
:101B100020310880091D0A80FFF7C6FF00BD0020A4
:101B20002749103109880907080B2549143109880C
:101B30000843704700BF2248001D008800F02000C5
:101B40000028F8D070471E48001D00884FF6F77136
:101B500008401B49091D088000BF1948001D008866
:101B600000F008000028F8D0704701460020144A11
:101B7000121D12880A400AB1012000E000207047BF
:101B80000F49091D098881430D4A121D11807047B4
:101B9000014600200A4A121D12880A40D0B2084AA3
:101BA00012880A4012B108B1012000E000207047FD
:101BB0000349091D09888143014A121D118070479C
:101BC0000028004010B50446D749601A8C422BD03B
:101BD00006DCD648204498B1B0F5806F38D119E0C2
:101BE000B0F5806F2AD0B0F56C4F31D10121880358
:101BF000FFF7FAFE00214FF48040FFF7F5FE28E0E2
:101C000001214804FFF7FDFE00214FF40030FFF7EB
:101C1000F8FE1EE001218804FFF7F3FE00214FF4D7
:101C20008020FFF7EEFE14E00121C804FFF7E9FE73
:101C300000214FF40020FFF7E4FE0AE0012108052F
:101C4000FFF7DFFE00214FF48010FFF7DAFE00E01F
:101C500000BF00BF10BD2DE9F04786B005460E4617
:101C60000024A24600BF00BF00272F462C8A4CF656
:101C7000FF700440F08804432C82AC894EF6F310C8
:101C80000440B08831890843718908430443AC811A
:101C9000AC8A4FF6FF400440B0890443AC8201A8EF
:101CA000FFF71BFEA248874202D1DDF810A001E039
:101CB000DDF80CA00AEBCA0000EB0A1031688900BD
:101CC000B0FBF1F86420B8FBF0F0040120096421B6
:101CD00001FB1089322000EB0910B0FBF1F000F09D
:101CE0000F0004432C8106B0BDE8F0874FF4165175
:101CF000016000218180C18001810C21418100218E
:101D00008181704710B502460020108A4FF2FF0310
:101D100018400B884C8823438C882343CC8823436A
:101D20001843108210BD0021018041808180C18054
:101D3000704721B1828942F40052828104E0828995
:101D40004DF6FF731A4082817047F0B503460024B8
:101D50000026002500201846C1F3421401F01F069A
:101D6000012707FA06F5012C01D10C3004E0022C02
:101D700001D1103000E014301AB107682F4307601A
:101D800002E00768AF430760F0BD1AB1838A0B43D6
:101D9000838202E0838A8B4383827047028A4FF6F4
:101DA000F0731A400282028A0A43028270478289D3
:101DB0004FF2FF731A40828182890A438281704701
:101DC00021B1828942F00202828104E082894FF6C9
:101DD000FD731A4082817047028A4FF6DF731A4002
:101DE0000282028A0A430282704721B1028A42F4C7
:101DF0008042028204E0028A4BF6FF731A4002829C
:101E00007047C1F308028280704701468888C0F39A
:101E100008007047818941F0010181817047028B80
:101E2000D2B20283028B42EA012202837047028B04
:101E300002F47F420283028B0A430283704721B17E
:101E4000828A42F02002828204E0828A4FF6DF73A7
:101E50001A408282704721B1828A42F01002828247
:101E600004E0828A4FF6EF731A408282704721B1F4
:101E7000828A42F00802828204E0828A4FF6F77377
:101E80001A4082827047828A4FF6FB731A40828220
:101E9000828A0A438282704721B1828A42F002021A
:101EA000828204E0828A4FF6FD731A408282704774
:101EB0000246002013880B400BB1012000E00020F7
:101EC0007047CA430280704770B502460B46002433
:101ED000002100250020C3F3421503F01F01012655
:101EE00006FA01F1012D02D19689314006E0022D5A
:101EF00002D1168A314001E0968A31401C12012637
:101F000006FA04F41688344011B10CB1012000E047
:101F1000002070BD10B5002200230A120124944055
:101F2000A3B2DC43048010BD004C004000BCFFBFE6
:101F3000003801400CB5002001900090474800682F
:101F400040F480304549086000BF4448006800F410
:101F5000003000900198401C0190009818B9019839
:101F6000B0F5A06FF1D13D48006800F4003010B129
:101F70000120009001E0002000900098012844D149
:101F80003748006840F0100035490860084600688E
:101F900020F0030008600846006840F00200086076
:101FA0002E4840682D494860084640684860084609
:101FB000406840F4806048600846406820F47C1027
:101FC00048600846406840F4E810486008460068E9
:101FD00040F08070086000BF2048006800F000708A
:101FE0000028F9D01D48406820F003001B494860D4
:101FF0000846406840F00200486000BF174840684B
:1020000000F00C000828F9D101E000BFFEE70CBD8C
:1020100010B5FFF78FFF10BD10B51048006840F0F5
:1020200001000E490860084640680E4908400B4907
:102030004860084600680C4908400849086008469E
:10204000006820F4802008600846406820F4FE0004
:10205000486000208860FFF7DBFF10BD00100240E1
:10206000002002400000FFF8FFFFF6FE40EA0103F7
:102070009B0703D009E008C9121F08C0042AFAD23E
:1020800003E011F8013B00F8013B521EF9D2704702
:1020900030B50B46014600202022012409E021FA38
:1020A00002F59D4205D303FA02F5491B04FA02F535
:1020B0002844151EA2F10102F1DC30BD064C074D8B
:1020C00006E0E06840F0010394E807009847103408
:1020D000AC42F6D3FEF730F85828000878280008FC
:1020E00070B58C1810F8015B15F0070301D110F8DA
:1020F000013B2A1106D110F8012B03E010F8016B07
:1021000001F8016B5B1EF9D12B0705D40023521E89
:102110000DD401F8013BFAE710F8013BCB1A921CF1
:1021200003E013F8015B01F8015B521EF9D5A142EF
:10213000D8D3002070BD00000FB4054B10B503A923
:10214000044A029800F018F810BC5DF814FB000077
:102150008D1000089001002002E008C8121F08C17D
:10216000002AFAD170477047002001E001C1121F18
:10217000002AFBD1704700002DE9FF4F8BB09A4633
:102180000F460546002606E025280BD052460D993D
:1021900090476D1C761C28780028F5D10FB030468A
:1021A000BDE8F08F0024A0460122604900E004430E
:1021B00015F8013F203B02FA03F00842F7D12878D6
:1021C0002E2817D115F8010F44F004042A280ED048
:1021D0006FF02F022878A0F1300109290AD808EB06
:1021E000880102EB410100EB01086D1CF2E757F892
:1021F000048B6D1C287869283ED006DC0028CDD0E1
:1022000063280BD0642804D136E0732810D07528D9
:102210004BD052460D999047761C85E017F8040B79
:102220008DF8000000208DF80100E946012003E050
:1022300057F8049B4FF0FF3061074FF0000401D4C2
:102240000AE0641C44450DDA8442FADB19F80410F4
:102250000029F6D106E0641C8442FCDB19F8041066
:102260000029F8D1264404E019F8010B52460D99D3
:102270009047641EF8D257E001CF4FF00A0B0028B8
:1022800002DA40422D2102E0210504D52B218DF8F0
:102290002410012103E0E10705D02021F7E70DF12B
:1022A000200908910CE00021F9E701CF4FF00A0B5B
:1022B000F9E75946FFF7ECFE01F1300209F8012D6C
:1022C0000028F6D1ADEB090000F1200B600701D426
:1022D0004FF00108D84502DDA8EB0B0000E000201C
:1022E0008046002406E009A85246005D0D999047FB
:1022F000641C761C08988442F5DB04E030205246CA
:102300000D999047761CB8F10001A8F10108F5DCA1
:1023100005E019F8010B52460D999047761CBBF168
:102320000001ABF1010BF4DC6D1C34E7092801005E
:1023300004AE530A57485526BD0D26500D95444608
:10234000AAB9056A4D09AD4224AEB604AE4A6A4D3B
:10235000BE0A4D520D25465D52BA0B544E0D6A43CE
:10236000296D37095B4B749BC10497540A4B485B3A
:1023700025BC06A55006D4454ADAB802B64D095721
:10238000422497B704974A664B3E0D4A510EA54624
:1023900056D4BA05AD4E02B644393738092E4B7CB7
:1023A00096BF0C95530D4A486DA53B0B554F056ADA
:1023B000454AADB9025D4D092D422C95B60A954AA4
:1023C0007B4ABD06CA510B5546555ABB04DA4E0A24
:1023D0005B43352BB8052B4C8A953F0E955206AAC8
:1023E000487AD53C0AB54F04B6454A57390A574D85
:1023F0000526423E93350D954975AABE056A5109D9
:102400006D4654AEBB04AD4F0A4D434D26B70D2566
:102410004B8D52BF0B54520B6A47696D3C095B50A0
:10242000049B454A4BB90A4B4DAB25C206A5540641
:10243000D4496ADA3D0AB6510937465497BB049726
:102440004F064B4436A5370EA54A86B2BF05AC539E
:102450000AB6475936BC092E500C96454D4AB80D60
:102460004A4C0DA54125AAB6056A497AADBD025D63
:1024700052092D475C95BA0A954E0B4A434B553786
:102480000AD54A955ABF04BA530A5B48652BBC0566
:102490002B500A9345474AB906AA4C0AD54124DA7B
:1024A000B604B64A69573D0A4E510D26465E933A28
:1024B0000D534D05AA4336B537096D4BB4AEBF0475
:1024C000AD530A4D486D25BC0D254F0D52445DAAF4
:1024D000380B5A4C056D4124ADB6049B4A7A4BBE6D
:1024E0000A4B510AA5465B52BA06D24E0ADA423569
:1024F0005B3709374B8497C1049753064B4866A551
:102500003C0EA54F06B2444AB6380AAE4C092E42DC
:102510003C97350C96497D4ABD0D4A510DA5455550
:10252000AABA056A4E0A6D43452EB7052D4B8A950A
:10253000BF0A95530B4A476B553B0AD54F055A4581
:102540004A5D380A5B4C052B423A93B606934977AD
:1025500029BD06AA510AD54654DABA04B64E0A571E
:10256000434527380D264A8E933E0D52520DAA47F9
:1025700066B53B056D4F04AE454A4EB90A4D4C0D4C
:1025800015412D92B54EA6999CA298800018001076
:10259000244EA6999CA2988082180010244EA6D999
:1025A0009EA2988082180010044EE6D99EA6A880AC
:1025B00082180010000FE6D9BEA698888218800005
:1025C000000FEFD9BEA6998C82988000000FEFDB38
:1025D000BEA6999CA2988000180FEFDBBEA6999C1E
:1025E000A2988000180FEFDBBEA2998CA098808281
:1025F000180BEFDBBEA6998CA2988082180FEFDB38
:10260000BEE6D99EA2988082180FEFFBBFE6D99E46
:10261000A6988082180FFFFFFCEFD9BEA6180614FB
:1026200004130615051406150615071708170817CD
:10263000081808160716001F3B5A7897B5D4F30000
:10264000110130014E0100030306010406020500DA
:1026500003051F1C1F1E1F1E1F1F1E1F1E1F000005
:10266000000000001F0000003B0000005A000000B6
:102670007800000097000000B5000000D4000000C2
:10268000F300000011010000300100004E010000C5
:10269000B6A10000BAA50000D8A50000D0A1D1A91C
:1026A00000000000B4F3D1A900000000C1A2B6AC44
:1026B00000000000B6AC0000D0A1BAAE00000000DF
:1026C000B4F3BAAE00000000C3AE0000CAAE000012
:1026D000D3EACBAE00000000C0B00000CEB40000D2
:1026E000CBAABDB500000000BAAEC2B60000000023
:1026F000B0D7C2B600000000C1A2B4BA000000000A
:10270000BCBA0000D2BB0000B3BD0000D0C10000C5
:10271000B6ACD6C100000000CFC4D6C10000000096
:10272000CBC40000C1A2CFC400000000BEC50000A1
:10273000CBC80000C8C90000B0CB0000D3CF000058
:10274000D2D20000D7D30000B4BAB7D60000000040
:10275000C7EFB7D600000000C3A2D6D60000000025
:10276000BCD70000BEAAD5DD00000000C6DF000017
:10277000CEE50000CEE70000D0E70000C9EA000087
:10278000B9C8D3EA00000000CEEC0000D0A1CAEE28
:1027900000000000B4A6CAEE00000000B4F3CAEEC8
:1027A00000000000B9EF0000C1A2C7EF0000000068
:1027B000B3F30000B3F50000C7E5C3F70000000065
:1027C000C1F90000CFC4C2FA00000000D2FA000034
:1027D000B1FB0000B8FD0000C8FD0000B6FE00001F
:1027E0000D202020B5B1C7B0CAB1BCE4CEAA3A20B2
:1027F0002564C4EA282573C4EA29202564D4C220AC
:102800002564C8D52028D0C7C6DA257329202025FD
:10281000302E32643A25302E32643A25302E32641E
:1028200000000000BBA20000C5A30000BCA6000081
:10283000B9B70000CDC30000C8D50000C9DF000053
:10284000C2ED0000D6ED0000BAEF0000D1F20000AA
:10285000CAF30000C1FA0000782800080000002038
:1028600094010000E0200008742900089401002071
:102870001C0200006821000813B8261B08C0041AB7
:10288000F8041AD0041364271B0848041AB8041A61
:1028900080041A24041AC4041A58041A18041A8C3E
:1028A000041A9C041AA8041A94041AF0341A500842
:1028B0001AE8081AE0041AAC041A9C041AA4041AB0
:1028C00010181A60041A40041AD0041A90141A88B6
:1028D000081119041AD4041A0C041A34041AA40492
:1028E0001A44041AB0041ACC041AC8281A08081A80
:1028F00030041A74041ADC101A7C081A3C042A7872
:102900007819102A041819041AD8041A20041A7005
:10291000041AC0041A6C041A38042A2C4C19281AF8
:10292000B4042AD80859102A9810190C321F321CE6
:102930002908DA1E08091214410B183828781A449D
:102940001C1A50041A28041A24041A34041A5404B1
:102950001A3C041A40041A4C041A48041A2C041A8B
:10296000300472012D01020304044009060708091E
:04297000020406084F
:0400000508000147A7
:00000001FF
