:020000040800F2
:100000000004002047010008391100083B110008D6
:100010003F110008431100084711000800000000CC
:100020000000000000000000000000004B1100086C
:100030004D110008000000004F1100085111000888
:1000400067010008670100086701000853110008F4
:1000500067010008670100086701000867010008E0
:1000600067010008670100086701000867010008D0
:1000700067010008670100086701000867010008C0
:1000800067010008670100086701000867010008B0
:1000900067010008670100086701000867010008A0
:1000A0006701000867010008670100086701000890
:1000B0006701000867010008670100086701000880
:1000C0006701000867010008670100086701000870
:1000D0006701000867010008670100086701000860
:1000E0006701000867010008670100086701000850
:1000F0006701000867010008670100086701000840
:10010000670100086701000867010008670100082F
:10011000670100086701000867010008670100081F
:10012000670100086701000867010008670100080F
:10013000DFF80CD001F0CAFF00480047810D00082D
:10014000B0030020704708488047084981F30888B9
:1001500007480047FEE7FEE7FEE7FEE7FEE7FEE7AB
:10016000FEE7FEE7FEE7FEE745010008B0030020DA
:100170003101000802460E2A70D2DFE802F086073D
:100180001019222B353F49535D67727CFC48405C57
:1001900010F0080F01D1002070470120FCE7F8485B
:1001A000405C10F0040F01D10020F5E70120F3E7D7
:1001B000F348405C10F0020F01D10020ECE7012071
:1001C000EAE7EF48405C10F0010F01D10020E3E7BF
:1001D0000120E1E7EA4B481C185C10F0800F01D1C8
:1001E0000020D9E70120D7E7E54B481C185C10F048
:1001F000400F01D10020CFE70120CDE7E04B481CA4
:10020000185C10F0200F01D10020C5E70120C3E7E2
:10021000DB4B481C185C10F0100F01D10020BBE72D
:100220000120B9E7D64B481C185C10F0080F01D12B
:100230000020B1E70120AFE7D14B481C185C10F05B
:10024000040F01D10020A7E70120A5E7CC4B481CF3
:10025000185C10F0020F02D100209DE715E001208C
:100260009AE7C74B481C185C10F0010F01D1002021
:1002700092E7012090E7C24B881C185C10F0800FB9
:1002800001D1002088E7012086E7002084E72DE9DE
:10029000FF4F83B014461D466421039890FBF1F094
:1002A00000F0FF0A039890FBF1F201FB120000F04E
:1002B000FF0BBAF1130F06D0BAF1140F03D00020D0
:1002C00007B0BDE8F08FBAF1140F06D10BF163004F
:1002D00000EB400080B2009005E0ABF1010000EBC4
:1002E000400080B20090A6490098801C085C00F095
:1002F000600676110098801C085C00F01F07012E34
:1003000003D1781E00F0FF0803E007F11E0000F0A3
:10031000FF0804980A2808DA0498401E9949085CE6
:100320002044401E80B2019008E004980A389649A3
:1003300031F810002044401E80B201900499022937
:100340000BDD4FEAEB710BEB91718910BBEB810177
:1003500003D10198401C80B201900198404542DBD6
:100360000198A0EB080080B2019001200490814622
:100370000020029048460099FFF7FCFE08B91D26B0
:1003800000E01E267E49009A885CC11700EB1171BF
:100390000F1121E00198801B80B2019009F101004A
:1003A00000F0FF090498B8420AD10298C043C0B2D5
:1003B0000290029840B90498401CC0B2049003E037
:1003C0000498401CC0B2049048460099FFF7D2FE42
:1003D00008B91D2600E01E260198B042DADA01981D
:1003E000401CC4B251E00198A8EB000000F0FF08E7
:1003F000BBF1000F04D14FF0630B4FF0130A03E081
:10040000ABF1010000F0FF0B0098C01E80B200901D
:100410000C2004905A49009A885CC11700EB1171B6
:100420000F1117B94FF00C0901E04FF00D09002032
:10043000029048460099FFF79DFE08B91D2600E08E
:100440001E261CE0A8EB060000F0FF08A9F1010041
:1004500000F0FF09029818B90498401EC0B2049039
:100460000498B84203D10298C043C0B202904846F3
:100470000099FFF77FFE08B91D2600E01E26B04553
:10048000E0DCA6EB0800401CC4B205F801AB05F89F
:1004900001BB049805F8010B2C70012010E710B582
:1004A000B0F5F86F09DBA0F5F86398B23C2390FB38
:1004B000F3F403FB1403DAB20AE0C0F5F86398B270
:1004C0003C2390FBF3F403FB1403C3F13C03DAB2C7
:1004D0000A7010BD10B5002305E011F8014B00F8BB
:1004E000014B5C1CA3B29342F7DB10BD2DE9FC412C
:1004F00004460D4616461F460F2224A13846FFF734
:10050000E9FF01AB324629462046FFF7C0FE08B995
:10051000BDE8FC819DF805109DF8042002EBC203A4
:1005200003EB021201EB82006946FFF7B8FF9DF86A
:1005300000000A2190FBF1F201FB1200174951F86B
:100540002080022241463846FFF7C4FF9DF8000094
:100550000C2190FBF1F201FB1200114951F82080AF
:1005600002224146B81CFFF7B5FF9DF8060001289E
:100570001AD102220BA1B81DFFF7ACFF1EE000004C
:10058000402300084626000850260008BCD7D7D3D1
:10059000C4EAD5FDD4C2B3F5D2BB00006000002090
:1005A00088000020D5FD00009DF80600401E894A05
:1005B00052F820100222B81DFFF78CFF9DF80700AB
:1005C0000A280EDD9DF807000A2190FBF1F0824910
:1005D00051F820800222414607F10A00FFF77AFF16
:1005E00005E002227DA107F10A00FFF773FF9DF8E5
:1005F0000700401E0A2190FBF1F201FB1200754931
:1006000051F820800222414607F10C00FFF762FFFB
:100610007EE7F0B50446B4F5FA6F03DB40F602005E
:10062000844201DD0020F0BD09B10C2901DD00206C
:10063000F9E7481E4006070E0F2A01DB781CC7B2F7
:1006400038464FEAE77C07EB5C7CA4F5FA6E0EEBCC
:100650004E0E0EEBEC0CDFF888E11EF80C504FEA62
:10066000E77C07EB5C7C4FEAEC0CA7EBCC0C05FAC3
:100670000CFC0CF080065B48C05D187096B1012F31
:1006800005D00B2F03D0122F01D0152F07D140F228
:10069000FC70844203DA1878401C187002E0187865
:1006A000401E18700120BEE72DE9F84304460D46B0
:1006B00016461F466B46324629462046FFF7A9FFDD
:1006C00010B90020BDE8F883681E40064FEA1068A4
:1006D0000F2E03DB08F1010000F0FF089DF8000079
:1006E000864208D1404850F8281005223846FFF7C6
:1006F000F1FE0120E6E70F223CA13846FFF7EAFEB3
:100700009DF8000086420BDA374850F82810042282
:10071000B81CFFF7DFFE9DF80000801BC6B24BE05F
:1007200008F10100172801DD0020CBE72E4A08F16F
:10073000010052F820100422B81CFFF7CBFE0F2E48
:100740000ADA6B460F2229462046FFF762FF9DF822
:100750000000801BC6B22FE0681E284911F80090E7
:10076000022D17D1E11704EB91718910B4EB8101CF
:1007700010D1642194FBF1F201FB124131B94FF425
:10078000C87194FBF1F201FB124119B909F10100A2
:1007900000F0FF09681CC0B205460D2800D10125F4
:1007A0006B46012229462046FFF733FFA9EB0600DE
:1007B0009DF800100844C6B20A2096FBF0F03030D5
:1007C000B8720A2096FBF0F100FB11603030F8722D
:1007D000012077E7B8000020E8000020B3F5000012
:1007E000952500082E26000800000020C0EBC1A2BD
:1007F000B6ACBBB9D3D03F3FCCEC000062260008BA
:10080000F0B58DB004463022724901A801F036FCE3
:100810006069461E642196FBF1F1F21706EB9272B5
:10082000C1EBA20130464FF4C87296FBF2F28D186C
:100830006069C11700EB91718910B0EB810112D191
:100840006422616991FBF2F302FB131131B992004A
:10085000616991FBF2F302FB131121B921690229AD
:1008600001DD012700E0002740F26D1000FB06507B
:100870002169491E01AA52F821100844E168084480
:100880000744072097FBF0F100FB1170A0610DB049
:10089000F0BD10B501460869801E0861002805DC1E
:1008A00008690C3008614869401E48616423486942
:1008B00090FBF3F04A69D31702EB9373C0EBA300EC
:1008C0004FF4C87492FBF4F3034440F26F140869C8
:1008D00060430C2490FBF4F01844CB68034440F2CE
:1008E0006D1402FB04303C4BC01A00EB40008B68D7
:1008F00003EBC000C0EB00104B6803EB8000C0EBC3
:1009000000100B6803EB800010BD2DE9F041044698
:100910000D463248B4FBF0F8B4FBF0F100FB114790
:100920004FF4616097FBF0F0A8604FF4616097FBB3
:10093000F0F100FB11703C2190FBF1F068604FF486
:10094000616097FBF0F100FB11703C2190FBF1F22C
:1009500001FB1200286040F2B2760AE016F0030FA5
:1009600002D14FF4B77001E040F26D10A8EB00081F
:10097000761C16F0030F02D14FF4B77001E040F27D
:100980006D104045EADD6E616869C11700EB917139
:100990008910B0EB810102D11D2011494860012668
:1009A00006E0701E0E4951F82000A8EB0008761CE6
:1009B000701E0B4951F820004045F2DD1C204860B4
:1009C0002E6108F10100E8602846FFF719FFBDE835
:1009D000F0810000702600088BFA0A0080510100A7
:1009E000F800002070B58AB00446FA492046FFF7A7
:1009F0008CFFF848806828B9F648406810B9F54877
:100A0000006818B1F448006800283BD0F14BDB685F
:100A1000DAB2F04B1B69D9B2EE4B5B6998B206AB08
:100A2000FFF735FC9DF81B3000939DF81A309DF8B8
:100A300019209DF81810E9A001F086FBE54BDB6852
:100A4000DAB2E44B1B69D9B2E24B5B6998B206ABF0
:100A5000FFF74CFD06A9EBA001F076FBDD4BDB6850
:100A6000DAB2DC4B1B69D9B2DA4B5B6998B206ABE0
:100A7000FFF71AFE18B106A9E4A001F065FB0020FB
:100A8000D5490860D3484069C01E0C2190FBF1F2A3
:100A900001FB1200DF4951F82050CE48036842683C
:100AA00081688069DC4E56F8200001AE0FC6C94847
:100AB000C368009303692A464169D84801F044FBA2
:100AC0000AB070BD10B5D2A001F03EFB0BE0D448D7
:100AD0000068012807D100F0F9FF0446FFF782FF04
:100AE0000020CF490860F2E77CB50546002468463F
:100AF00000210A4606C027E000BF2021C94801F0B6
:100B0000EAF90028F9D0C74801F092F92146641C9F
:100B10004DF82100601E5DF82000302804D3601ECF
:100B20005DF8200039280FD9022C09D1601E5DF82C
:100B300020000D2804D1009801903020009003E09F
:100B4000B9A001F001FB641E022CD5D30198303806
:100B50000099303901EB810100EB4104AC4205D929
:100B60002946BEA001F0F0FAFF207CBDE0B2FCE710
:100B70002DE9F0470446FF25FF26FF27A846A94692
:100B8000AA46C2A001F0E0FACFA001F0DDFA03E02E
:100B90006320FFF7A9FF0546FF2DF9D02946D4A011
:100BA00001F0D2FA05F5FA606061FF26D8A001F0E5
:100BB000CBFA03E00C20FFF797FF0646FF2EF9D093
:100BC0003146DDA001F0C0FA2661FF27E0A001F068
:100BD000BBFA03E01F20FFF787FF0746FF2FF9D07E
:100BE0003946E4A001F0B0FAE7604FF0FF08E7A053
:100BF00001F0AAFA03E01720FFF776FF8046B8F16C
:100C0000FF0FF8D04146EAA001F09EFAC4F8088030
:100C10004FF0FF09ECA001F097FA03E03B20FFF74B
:100C200063FF8146B9F1FF0FF8D04946F0A001F00B
:100C30008BFAC4F804904FF0FF0AF3A001F084FA95
:100C400003E03B20FFF750FF8246BAF1FF0FF8D0D8
:100C50005146F7A001F078FAC4F800A0BDE8F0878B
:100C600010B500F073FF5B48FFF782FF5948FFF7AC
:100C7000C7FD5848FFF70DFE044600F031FF00F0B5
:100C800065FF10BD10B501214FF0C05000F0A5FE6A
:100C9000012000F0DAFC00F0E9FA012000F0FCFD90
:100CA00000BF412000F06AFD0028FAD04FF48070A8
:100CB00000F00EFE012000F011FE00F04FFF00F0EA
:100CC00045FF0121084600F0DDFE00F03FFF47F63A
:100CD000FF7000F013FF00F039FF10BD1FB54FF497
:100CE000E13000900020ADF80400ADF80600ADF84A
:100CF0000800ADF80C000C20ADF80A006946494820
:100D000000F0BBFF0121474801F024F81FBD08B5E2
:100D10004FF40070ADF8000018208DF80300032098
:100D20008DF802006946C84800F05EFB4FF4806011
:100D3000ADF8000004208DF803006946C24800F0B9
:100D400053FB08BD08B54FF4C06000F01FFA032044
:100D50008DF8000001208DF8010000208DF80200C0
:100D600001208DF80300684600F015FA08BD10B5A3
:100D700001F059F9012144F2040000F021FE10BDF8
:100D800010B5FFF7F4FFFFF7DDFFFFF7C0FFFFF738
:100D9000A5FF042000F098FAA0F52541A5390FD051
:100DA000AAA001F0D1F9FFF76DFFB0A001F0CCF9D6
:100DB000FFF756FF4AF2A551042000F080FA83E1C4
:100DC0007B2000F0DBFC18B1AEA001F0BDF970E1B2
:100DD00068E1000094010020780100200A0D0A0D4E
:100DE0002020BDF1CCECC5A9C0FAA3BA25302E3223
:100DF0006425302E32642C25302E32642C25302E82
:100E0000326400002020257300000000202025739C
:100E10000A0D0000480100202C010020A026000837
:100E200028010020003801400A0D506C656173658F
:100E300020656E7465722076616C6964206E756DD4
:100E4000626572206265747765656E203020616E20
:100E5000642039202D2D3E3A202000000A0D506CD0
:100E60006561736520656E7465722076616C696476
:100E7000206E756D626572206265747765656E209F
:100E80003020616E64202564000000000D0A3D3DA5
:100E90003D3D3D3D3D3D3D3D3D3D3D3D3D3D3D3D82
:100EA0003D3D3D3D3D3D3D54696D65205365747448
:100EB000696E67733D3D3D3D3D3D3D3D3D3D3D3DA5
:100EC0003D3D3D3D3D3D00000D0A2020C7EBCAE4FD
:100ED000C8EBC4EAB7DD28506C65617365205365C3
:100EE00074205965617273293A2020323000000065
:100EF0000A0D2020C4EAB7DDB1BBC9E8D6C3CEAA2B
:100F00003A2020323025302E32640A0D00000000D5
:100F10000D0A2020C7EBCAE4C8EBD4C2B7DD2850C5
:100F20006C6561736520536574204D6F6E746873D2
:100F3000293A2020000000000A0D2020D4C2B7DD8D
:100F4000B1BBC9E8D6C3CEAA3A202025640A0D0059
:100F50000D0A2020C7EBCAE4C8EBC8D5C6DA285072
:100F60006C656173652053657420446174657329F1
:100F70003A2020000A0D2020C8D5C6DAB1BBC9E846
:100F8000D6C3CEAA3A202025640A0D000D0A2020DF
:100F9000C7EBCAE4C8EBCAB1D6D328506C656173FD
:100FA000652053657420486F757273293A202000BC
:100FB0000A0D2020CAB1D6D3B1BBC9E8D6C3CEAA88
:100FC0003A202025640A0D000D0A2020C7EBCAE450
:100FD000C8EBB7D6D6D328506C65617365205365CE
:100FE00074204D696E75746573293A2020000000E5
:100FF0000A0D2020B7D6D6D3B1BBC9E8D6C3CEAA36
:101000003A202025640A0D000D0A2020C7EBCAE40F
:10101000C8EBC3EBD6D328506C656173652053656C
:1010200074205365636F6E6473293A2020000000BA
:101030000A0D2020C3EBD6D3B1BBC9E8D6C3CEAAD4
:101040003A202025640A0D00000801400D0A0A20FC
:10105000525443206E6F742079657420636F6E66FE
:101060006967757265642E2E2E2E00000D0A2052BF
:10107000544320636F6E666967757265642E2E2E09
:101080002E0000000D0A0A20506F776572204F6E07
:10109000205265736574206F636375727265642E88
:1010A0002E2E2E007A2000F069FB10B111A001F065
:1010B0004BF818A001F048F800F050FD0121084657
:1010C00000F0E0FC00F042FD00F0B8FCFFF7FAFC95
:1010D000002010BD70B504460D46E1B2154800F081
:1010E000A3FE00BF1348008810F0800FFAD02046FE
:1010F00070BD00000D0A0A2045787465726E616C3F
:10110000205265736574206F636375727265642E17
:101110002E2E2E000D0A204E6F206E656564207401
:101120006F20636F6E666967757265205254432E37
:101130002E2E2E0000380140704700BFFEE700BF92
:10114000FEE700BFFEE700BFFEE77047704770474D
:10115000704710B5012000F027FD88B1012000F094
:1011600034FD01200749086000F0F0FC00F0AEFCFF
:101170000549884204D1002000F0B2FC00F0E6FCF2
:1011800010BD0000280100208051010032490143B8
:10119000324A1160704770B5002100230F22C478D5
:1011A0000CB32E4C246804F4E064C4F5E064210A16
:1011B000C1F10403CA40447804FA03F1847814406E
:1011C00021430901264C0678A155047804F01F0537
:1011D0000124AC4005786D114FF0E02606EB850543
:1011E000C5F8004109E0047804F01F040125A5407A
:1011F0001C4C0678761144F8265070BD1A4A0A40F5
:101200000243164B1B1F1A60704741B1134A121D4F
:10121000126802434FF0E023C3F8102D07E00F4A95
:10122000121D126882434FF0E023C3F8102D70475F
:10123000042808D14FF0E021096941F004014FF082
:10124000E022116107E04FF0E021096921F004017B
:101250004FF0E022116170470000FA050CED00E04C
:1012600000E400E080E100E080FFFF1F10B50120F6
:1012700000F0DAFB002000F0D7FB10BD2349086026
:1012800070472249091F086070472049843108606F
:10129000704700211E4A11884FF67F4211400143DA
:1012A0001C4AA2F82C1C70470021194A11884FF6DD
:1012B000807211400143174AA2F82C1C7047154A4E
:1012C0000244A2F8001C7047014612480844B0F8D6
:1012D000000C70470D489C300068C0B270470C4845
:1012E0000830008840F001000A49A1F8340C70472A
:1012F0000648A0300068C0B2704705480830008832
:1013000040F002000349A1F8340C704704860D42F6
:101310002C6C00400060004010B50446C149601AC2
:101320008C422FD009DCC048201810D0B0F5806F57
:1013300016D0B0F5006F4AD11BE0B0F5806F2AD00F
:10134000B0F5006F30D0B0F5406F40D135E00121ED
:10135000042000F04FFB0021042000F04BFB37E09D
:101360000121082000F046FB0021082000F042FB8C
:101370002EE00121102000F03DFB0021102000F0A4
:1013800039FB25E00121202000F034FB0021202042
:1013900000F030FB1CE00121402000F02BFB00217D
:1013A000402000F027FB13E00121802000F022FB09
:1013B0000021802000F01EFB0AE00121080200F05D
:1013C00019FB00214FF4807000F014FB00E000BF17
:1013D00000BF10BD10B50121084600F00BFB002135
:1013E000012000F007FB10BDF0B50022002300240F
:1013F00000250026002791F803C00CF00F0291F899
:1014000003C01CF0100F03D091F802C04CEA020296
:10141000B1F800C01CF0FF0F31D0066800242BE0AB
:101420004FF0010C0CFA04F5B1F800C00CEA05030A
:10143000AB4220D1A5004FF00F0C0CFA05F7BE43CC
:1014400002FA05FC4CEA060691F803C0BCF1280F2D
:1014500006D14FF0010C0CFA04FCC0F814C00AE0ED
:1014600091F803C0BCF1480F05D14FF0010C0CFA04
:1014700004FCC0F810C0641C082CD1D30660B1F87D
:1014800000C0BCF1FF0F34DD466800242EE004F1FB
:10149000080C4FF0010E0EFA0CF5B1F800C00CEA82
:1014A0000503AB4221D1A5004FF00F0C0CFA05F754
:1014B000BE4302FA05FC4CEA060691F803C0BCF1F3
:1014C000280F05D104F1080C0EFA0CFEC0F814E048
:1014D00091F803C0BCF1480F07D104F1080C4FF09C
:1014E000010E0EFA0CFEC0F810E0641C082CCED3DE
:1014F0004660F0BD4FF6FF7101800221817004212A
:10150000C17070470246002093680B4201D0012051
:1015100000E0002070470146886880B270470246AC
:101520000020D3680B4201D0012000E0002070476A
:101530000146C86880B270470161704741617047D9
:101540000AB1016100E041617047C16070474FF42A
:1015500080320A4382618161826182698269704757
:101560000022324B1A684FF680731A4042EA00128A
:101570000A432E4B1A6070472D49C8617047F0B579
:101580000022002300250024284E7568C0F3034480
:1015900082B200F44016B6F5401F08D125F0706500
:1015A000224E766826F07066204F7E6012E000F4CE
:1015B0008016B6F5801F06D1032606FA04F39D4374
:1015C00045F0706506E0460D360102FA06F6B543B1
:1015D00045F0706521B1460D360102FA06F6354335
:1015E000124E7560F0BD30B500228B071C0F0F2323
:1015F00003FA04F20D4B08338C1053F82440944343
:101600008D1043F825408C1053F824308C07240F9C
:1016100000FA04F42343054C08348D1044F82530B7
:1016200030BD00000014014000F8FEBF0000014082
:101630000000204210B50121080700F0E8F9002160
:101640004FF0805000F0E3F910BD28490862704760
:101650002649086170470021254A116821F0E00100
:101660000143116070472149A0310860704710B5EF
:1016700000221F4B1A6822F0030202431A601D4B1E
:101680001B6843F004034FF0E024C4F8103D012927
:1016900001D130BF00E020BF10BD1548006840F008
:1016A0000400134908600846006840F00200086022
:1016B0001048006840F004004FF0E021C1F8100D20
:1016C00000BF00BF30BF704701460020084A526883
:1016D0000A4201D0012000E0002070470449096857
:1016E00041EA8001024A11607047000000000E428A
:1016F0000070004010ED00E0DA48006840F00100A2
:10170000D849086008464068D7490840D54948602C
:1017100008460068D5490840D24908600846006874
:1017200020F4802008600846406820F4FE004860ED
:10173000002088607047CB49096821F48031C94A8C
:1017400011601146096821F480211160B0F5803FD5
:1017500003D0B0F5802F0ED106E0C249096841F4EC
:101760008031C04A116007E0BE49096841F4A021F8
:10177000BC4A116000E000BF00BF704710B50146D1
:101780000022002300204A11012A02D1B54C23680F
:1017900006E0022A02D1B34C236A01E0B14C636A2D
:1017A00001F01F02012494401C4201D0012000E0FE
:1017B000002010BD70B500240025002600BF312098
:1017C000FFF7DCFF0646641C16B9B4F5A06FF6D12E
:1017D0003120FFF7D3FF08B1012500E0002528469E
:1017E00070BD00219F4A116821F0F80141EAC00153
:1017F000116070479E49086070470022994B5A68F3
:1018000022F47C1240EA01031A43964B5A60704757
:101810009749086670470021924A516821F00301F8
:101820000143516070478F48406800F00C007047DA
:1018300000218C4A516821F0F0010143516070474A
:101840000021884A516821F4E061014351607047EA
:101850000021844A516821F4605141EAC00151607D
:10186000704729B17F4A527A02437E4B5A7206E092
:101870007C4A527AC343DBB21A407A4B5A727047A1
:101880007B49D831086070470021764A516821F4BD
:1018900040410143516070470021724A203211706B
:1018A000704A82F82010012802D004280AD104E0EE
:1018B00001216C4A2032117005E00521694A20326D
:1018C000117000E000BF00BF70476A4908607047B0
:1018D0006449096A0143634A1162704765494439A2
:1018E0000860704730B500210022002300245D4DC0
:1018F0006D6805F00C0121B1042905D0082923D118
:1019000005E05D4D056022E05B4D05601FE0554D33
:101910006D6805F47012022505EB9242514D6D6819
:1019200005F480331BB9554D554305600BE04D4D13
:101930006D6815F4003F03D0504D5543056002E03B
:101940004D4D5543056002E04B4D056000BF00BFA3
:10195000444D6D6805F0F0010909494D6C5C05685E
:10196000E54045603F4D6D6805F4E061090A444D6E
:101970006C5C4568E54085603A4D6D6805F46051E2
:10198000C90A3F4D6C5C4568E540C560354D6D68E2
:1019900005F44041890B3A4D10356C5CC568B5FBC8
:1019A000F4F5056130BD29B12E4A526902432D4B31
:1019B0005A6104E02B4A526982432A4B5A617047AC
:1019C00029B1284A92690243264B9A6104E0254ACC
:1019D00092698243234B9A61704729B1214AD269A7
:1019E0000243204BDA6104E01E4AD26982431D4B58
:1019F000DA61704729B11B4AD2680243194BDA6099
:101A000004E0184AD2688243164BDA60704729B165
:101A1000144A12690243134B1A6104E0114A126915
:101A20008243104B1A617047124940390860704771
:101A30000F49C86470470B49C87170470948406A2C
:101A400040F0807007494862704701460020054A0F
:101A500092680A4201D0012000E00020704701494D
:101A600088727047001002400000FFF8FFFFF6FE8A
:101A7000000042428004424200127A0000093D0008
:101A80007C01002031B1564A12880243554BA3F81D
:101A9000002807E0524A1288C3439BB21A40514BB8
:101AA000A3F8002870474E48001D008840F0100041
:101AB0004C49A1F8040870474948001D00884FF6BA
:101AC000EF7108404749A1F80408704700214448D5
:101AD0001C3001884348B0F8180841EA00407047BC
:101AE00000B50246FFF7DFFF100C3D4918310880B2
:101AF0003C49A1F81C28FFF7DFFF00BD00B50246F6
:101B0000FFF7D1FFC2F3034035490831088035495A
:101B1000A1F80C28FFF7D0FF00BD00B50246FFF783
:101B2000C2FF100C2E49203108802E49A1F824282C
:101B3000FFF7C2FF00BD00202949103109880907BD
:101B4000080B2849B1F814180843704700BF24480F
:101B5000001D008810F0200FF9D070472048001DAC
:101B600000884FF6F77108401E49A1F8040800BF2D
:101B70001B48001D008810F0080FF9D0704701467F
:101B80000020174A121D12880A4201D0012000E0ED
:101B9000002070471249091D0988C24392B21140C2
:101BA000104AA2F804187047014600200C4A121D82
:101BB00012880A40D0B20B4AB2F800280A4202D07A
:101BC00008B1012000E0002070470549091D09887F
:101BD000C24392B21140034AA2F8041870470000B1
:101BE000002800400020004010B50446D749601A84
:101BF0008C422BD006DCD648201813D0B0F5806F6D
:101C000038D119E0B0F5806F2AD0B0F56C4F31D1E2
:101C100001218803FFF7EEFE00214FF48040FFF71B
:101C2000E9FE28E001214804FFF7F1FE00214FF40E
:101C30000030FFF7ECFE1EE001218804FFF7E7FE0D
:101C400000214FF48020FFF7E2FE14E00121C804D8
:101C5000FFF7DDFE00214FF40020FFF7D8FE0AE079
:101C600001210805FFF7D3FE00214FF48010FFF794
:101C7000CEFE00E000BF00BF10BD2DE9F04786B0EA
:101C800004460D460026002700BF00BFB246A2460C
:101C9000268A4CF6FF700640E88806432682A6890D
:101CA0004EF6F3100640A88829890843698908433D
:101CB0000643A681A68A4FF6FF400640A889064340
:101CC000A68201A8FFF70EFE5446A248824501D124
:101CD000049F00E0039F07EBC70000EB0710296893
:101CE0008900B0FBF1F86420B8FBF0F00601300980
:101CF000642101FB1089322101EB09106421B0FB42
:101D0000F1F000F00F000643268106B0BDE8F08731
:101D10004FF41651016000218180C18001810C21A6
:101D2000418100218181704710B50022028A4FF263
:101D3000FF031A400B884C8823438C882343CC88AC
:101D400023431A43028210BD00210180418081801B
:101D5000C180704721B1828942F40052828104E03F
:101D600082894DF6FF731A4082817047F0B50024D6
:101D70000025002600230346C1F3421401F01F058D
:101D8000012707FA05F6012C01D10C3304E0022CDF
:101D900001D1103300E014331AB11F6837431F60BC
:101DA00002E01F68B7431F60F0BD10B51AB1838A07
:101DB0000B43838204E0838ACC43A4B22340838212
:101DC00010BD028A4FF6F0731A400282028A0A435B
:101DD0000282704782894FF2FF731A4082818289A2
:101DE0000A438281704721B1828942F002028281D6
:101DF00004E082894FF6FD731A4082817047028A9F
:101E00004FF6DF731A400282028A0A430282704749
:101E100021B1028A42F48042028204E0028A4BF637
:101E2000FF731A4002827047C1F308028280704734
:101E300001468888C0F308007047818941F001019C
:101E400081817047028BD2B20283028B42EA012267
:101E500002837047028B02F47F420283028B0A43A3
:101E60000283704721B1828A42F02002828204E01C
:101E7000828A4FF6DF731A408282704721B1828ACC
:101E800042F01002828204E0828A4FF6EF731A4019
:101E90008282704721B1828A42F00802828204E085
:101EA000828A4FF6F7731A4082827047828A4FF611
:101EB000FB731A408282828A0A438282704721B170
:101EC000828A42F00202828204E0828A4FF6FD7327
:101ED0001A40828270470246002013880B4201D0CC
:101EE000012000E000207047CA430280704770B5AF
:101EF00002460023002400250020C1F3421501F012
:101F00001F04012606FA04F4012D02D196893440FB
:101F100006E0022D02D1168A344001E0968A344050
:101F20000B12012606FA03F31688334014B10BB1E5
:101F3000012000E0002070BD10B5002200230A122D
:101F400001249440A3B2DC43048010BD004C004047
:101F500000BCFFBF0038014000200021434A126846
:101F600042F48032414B1A6000BF404A126802F4CA
:101F70000031401C11B9B0F5A06FF6D13B4A126890
:101F800012F4003F01D0012100E00021012943D1DA
:101F9000374A126842F01002354B1A601A4612682E
:101FA00022F003021A601A46126842F002021A6016
:101FB0002E4A52682D4B5A601A4652685A601A4689
:101FC000526842F480625A601A46526822F47C12C7
:101FD0005A601A46526842F4E8125A601A46126869
:101FE00042F080721A6000BF204A126812F0007F2F
:101FF000FAD01E4A526822F003021C4B5A601A465D
:10200000526842F002025A6000BF184A526802F059
:102010000C02082AF9D101E000BFFEE7704710B5B5
:10202000FFF79AFF10BD10B51048006840F001009E
:102030000E490860084640680E4908400B49486050
:10204000084600680C4908400849086008460068CE
:1020500020F4802008600846406820F4FE004860B4
:1020600000208860FFF7DBFF10BD00000010024079
:10207000002002400000FFF8FFFFF6FE40EA0103E7
:102080009B070AD102E008C9121F08C0042AFAD22D
:1020900003E011F8013B00F8013B521EF9D27047F2
:1020A00030B50B46014600202022012409E021FA28
:1020B00002F59D4205D303FA02F5491B04FA02F525
:1020C0002844151EA2F10102F1DC30BD064C074D7B
:1020D00006E0E06840F0010394E8070098471034F8
:1020E000AC42F6D3FEF728F8EC2700080C280008CD
:1020F00070B58C1810F8015B15F0070301D110F8CA
:10210000013B2A1106D110F8012B03E010F8016BF6
:1021100001F8016B5B1EF9D12B0706D4002301E007
:1021200001F8013B521EFBD50AE010F8013BCB1A27
:10213000921C03E013F8015B01F8015B521EF9D514
:10214000A142D7D3002070BD0FB410B503A9044B32
:10215000044A029800F018F810BC5DF814FB000067
:10216000D51000089001002002E008C8121F08C125
:10217000002AFAD170477047002001E001C1121F08
:10218000002AFBD1704700002DE9FF4F8BB00546B8
:102190009A460F460026C3E0252872D100246D1C04
:1021A000664AA14601212B78203B01FA03F0104238
:1021B00002D004436D1CF6E728782E2818D115F8B4
:1021C000010F44F004042A280BD157F8049B6D1C1E
:1021D0000EE009EB890002EB400001EB00096D1CE9
:1021E00001E06FF02F022978A1F130000928F0D921
:1021F0002878692806D00DDC002879D0632811D012
:102200006428CAD101CF4FF00A0B00283ADA4042C5
:102210002D213AE073280FD07528BED101CF4FF0A1
:102220000A0B3AE001CF8DF8280000208DF8290034
:102230000DF12808012003E057F8048B4FF0FF3020
:1022400061074FF000040AD500E0641C4C450EDA2B
:102250008442FADB18F804100029F6D107E000E008
:10226000641C8442FCDB18F804100029F8D12644D1
:1022700004E018F8010B52460D999047641EF8D2FD
:102280004DE055E0210504D52B218DF808100121E2
:1022900004E0E10701D02021F7E700210DF12C082F
:1022A000019107E05946FFF7FBFEA8F1010230312A
:1022B000904611700028F5D103A8A0EB080000F1AA
:1022C000200B600701D44FF001090020D94501DD42
:1022D000A9EB0B008146002406E002A8005D5246EF
:1022E0000D999047761C641C01988442F5DB05E04B
:1022F0001AE0302052460D999047761CB9F1000043
:10230000A9F10109F5DC05E018F8010B52460D9919
:102310009047761CBBF10000ABF1010BF4DC6D1CA7
:10232000287800287FF438AF30460FB0BDE8F08F32
:1023300052460D999047761CF1E7000009280100EC
:1023400004AE530A57485526BD0D26500D954446F8
:10235000AAB9056A4D09AD4224AEB604AE4A6A4D2B
:10236000BE0A4D520D25465D52BA0B544E0D6A43BE
:10237000296D37095B4B749BC10497540A4B485B2A
:1023800025BC06A55006D4454ADAB802B64D095711
:10239000422497B704974A664B3E0D4A510EA54614
:1023A00056D4BA05AD4E02B644393738092E4B7CA7
:1023B00096BF0C95530D4A486DA53B0B554F056ACA
:1023C000454AADB9025D4D092D422C95B60A954A94
:1023D0007B4ABD06CA510B5546555ABB04DA4E0A14
:1023E0005B43352BB8052B4C8A953F0E955206AAB8
:1023F000487AD53C0AB54F04B6454A57390A574D75
:102400000526423E93350D954975AABE056A5109C8
:102410006D4654AEBB04AD4F0A4D434D26B70D2556
:102420004B8D52BF0B54520B6A47696D3C095B5090
:10243000049B454A4BB90A4B4DAB25C206A5540631
:10244000D4496ADA3D0AB6510937465497BB049716
:102450004F064B4436A5370EA54A86B2BF05AC538E
:102460000AB6475936BC092E500C96454D4AB80D50
:102470004A4C0DA54125AAB6056A497AADBD025D53
:1024800052092D475C95BA0A954E0B4A434B553776
:102490000AD54A955ABF04BA530A5B48652BBC0556
:1024A0002B500A9345474AB906AA4C0AD54124DA6B
:1024B000B604B64A69573D0A4E510D26465E933A18
:1024C0000D534D05AA4336B537096D4BB4AEBF0465
:1024D000AD530A4D486D25BC0D254F0D52445DAAE4
:1024E000380B5A4C056D4124ADB6049B4A7A4BBE5D
:1024F0000A4B510AA5465B52BA06D24E0ADA423559
:102500005B3709374B8497C1049753064B4866A540
:102510003C0EA54F06B2444AB6380AAE4C092E42CC
:102520003C97350C96497D4ABD0D4A510DA5455540
:10253000AABA056A4E0A6D43452EB7052D4B8A95FA
:10254000BF0A95530B4A476B553B0AD54F055A4571
:102550004A5D380A5B4C052B423A93B6069349779D
:1025600029BD06AA510AD54654DABA04B64E0A570E
:10257000434527380D264A8E933E0D52520DAA47E9
:1025800066B53B056D4F04AE454A4EB90A4D4C0D3C
:1025900015412D92B54EA6999CA298800018001066
:1025A000244EA6999CA2988082180010244EA6D989
:1025B0009EA2988082180010044EE6D99EA6A8809C
:1025C00082180010000FE6D9BEA6988882188000F5
:1025D000000FEFD9BEA6998C82988000000FEFDB28
:1025E000BEA6999CA2988000180FEFDBBEA6999C0E
:1025F000A2988000180FEFDBBEA2998CA098808271
:10260000180BEFDBBEA6998CA2988082180FEFDB27
:10261000BEE6D99EA2988082180FEFFBBFE6D99E36
:10262000A6988082180FFFFFFCEFD9BEA6180614EB
:1026300004130615051406150615071708170817BD
:10264000081808160716001F3B5A7897B5D4F300F0
:10265000110130014E0100030306010406020500CA
:1026600003051F1C1F1E1F1E1F1F1E1F1E1F0000F5
:10267000000000001F0000003B0000005A000000A6
:102680007800000097000000B5000000D4000000B2
:10269000F300000011010000300100004E010000B5
:1026A0000D202020B5B1C7B0CAB1BCE4CEAA3A20F3
:1026B0002564C4EA282573C4EA29202564D4C220ED
:1026C0002564C8D52028D0C7C6DA2573292020253F
:1026D000302E32643A25302E32643A25302E326460
:1026E00000B6A100BAA500D8A500D0A1D1A900B418
:1026F000F3D1A900C1A2B6AC00D0A1BAAE00B4F328
:10270000BAAE00C3AE00CAAE00D3EACBAE00C0B0D2
:1027100000CEB400CBAABDB500BAAEC2B600B0D7E9
:10272000C2B600C1A2B4BA00BCBA00D2BB00B3BDED
:1027300000D0C100B6ACD6C100CFC4D6C100CBC456
:1027400000C1A2CFC400BEC500CBC800C8C900B03C
:10275000CB00D3CF00D2D200D7D300B4BAB7D600C3
:10276000C7EFB7D600C3A2D6D600BCD700BEAAD545
:10277000DD00C6DF00CEE500CEE700D0E700C9EA05
:1027800000B9C8D3EA00CEEC00D0A1CAEE00B4A6CE
:10279000CAEE00B4F3CAEE00B9EF00C1A2C7EF0061
:1027A000B3F300B3F500C7E5C3F700C1F900CFC428
:1027B000C2FA00D2FA00B1FB00B8FD00C8FD00B6B5
:1027C000FE00BBA200C5A300BCA600B9B700CDC3E4
:1027D00000C8D500C9DF00C2ED00D6ED00BAEF0099
:1027E000D1F200CAF300C1FA000000000C28000872
:1027F0000000002094010000F020000810290008CB
:10280000940100201C0200007821000813F9261B07
:1028100008FE041323271B0809041A6D041A5B041D
:102820001AA6041A81041A41041AAE041A65041A7D
:1028300039041A89041A93041A9B041A8E041A1E66
:10284000041A60041A19041A14041AF44C1AEA043B
:102850001AEF041A34101A6A041A55041AB6041A24
:10286000E1141A86081A28041AB9041A31041A4CF9
:10287000041A98041A58041AA0041AB3041A030478
:102880001A2E041A49041A78041A11041A7E041A1A
:1028900052041A7B041AE4481A2B081ABF041ABC03
:1028A000041A3E041A75041AAB041A72041A4F046F
:1028B0001A46041A06041AF62C1A0E085AA3101AFD
:1028C000E7102934321F321C2908DA1E08091214B5
:1028D000411AD1380916781ADA041AE3041AC50421
:1028E0001AC2041ACE041AE6041AD4041AD7041A17
:1028F000E0041ADD041AC8041ACB0472012D010287
:102900000304044009060708090204060800000041
:0400000508000147A7
:00000001FF
